:020000040800F2
:1000000000400020A90D00083D0D0008430D000828
:1000100000000000000000000000000000000000E0
:10002000000000000000000000000000490D000872
:100030000000000000000000530D00085D0D0008E6
:10004000F90D0008F90D0008F90D0008F90D000878
:10005000F90D0008F90D0008F90D0008F90D000868
:10006000F90D0008F90D0008F90D0008F90D000858
:10007000F90D0008F90D0008F90D0008F90D000848
:10008000F90D0008F90D0008F90D0008F90D000838
:10009000F90D0008F90D0008F90D0008F90D000828
:1000A000F90D0008F90D0008F90D0008F90D000818
:1000B000F90D0008F90D00086D0D0008850D000808
:1000C00010B5064C2378002B07D1054B002B02D02E
:1000D000044800E000BF0123237010BD7C01002014
:1000E00000000000C48F0008044B10B5002B03D0A3
:1000F0000349044800E000BF10BDC04600000000F6
:1001000080010020C48F0008002243088B4274D372
:1001100003098B425FD3030A8B4244D3030B8B4208
:1001200028D3030C8B420DD3FF22090212BA030C11
:100130008B4202D31212090265D0030B8B4219D3F2
:1001400000E0090AC30B8B4201D3CB03C01A524112
:10015000830B8B4201D38B03C01A5241430B8B425A
:1001600001D34B03C01A5241030B8B4201D30B0343
:10017000C01A5241C30A8B4201D3CB02C01A52416A
:10018000830A8B4201D38B02C01A5241430A8B422D
:1001900001D34B02C01A5241030A8B4201D30B0216
:1001A000C01A5241CDD2C3098B4201D3CB01C01A30
:1001B000524183098B4201D38B01C01A524143093A
:1001C0008B4201D34B01C01A524103098B4201D328
:1001D0000B01C01A5241C3088B4201D3CB00C01A95
:1001E000524183088B4201D38B00C01A524143080D
:1001F0008B4201D34B00C01A5241411A00D2014632
:10020000524110467047FFE701B5002000F006F8A4
:1002100002BDC0460029F7D076E770477047C04658
:1002200080B582B000AF0200FB1D1A70FB1D1B7869
:10023000092B04D8FB1D1B783033DBB219E0FB1D02
:100240001B78602B08D9FB1D1B78662B04D8FB1D7F
:100250001B785733DBB20CE0FB1D1B78092B08D948
:10026000FB1D1B780F2B04D8FB1D1B783733DBB22B
:10027000FFE71800BD4602B080BD80B582B000AF78
:100280000200FB1D1A70FB1D1B782F2B08D9FB1DCC
:100290001B78392B04D8FB1D1B78303BDBB219E0EF
:1002A000FB1D1B78602B08D9FB1D1B78662B04D81F
:1002B000FB1D1B78573BDBB20CE0FB1D1B78402B72
:1002C00008D9FB1D1B78462B04D8FB1D1B78373B38
:1002D000DBB2FFE71800BD4602B080BDB0B588B004
:1002E00000AF786080239B01B1480122190001F022
:1002F000ADFEB04BB04A7868002101F0F7F8AF4B83
:100300001B68AF491800FFF785FF0B001A000E238A
:10031000FB181A80A84B1B68002B00D1C2E0A94B28
:1003200074221A70A44B1B681B0ADBB20F22134005
:10033000DBB21800FFF774FF03001A00A14B5A70DC
:100340009D4B1B681B09DBB20F221340DBB2180068
:10035000FFF766FF03001A009A4B9A70964B1B68D2
:10036000DBB20F221340DBB21800FFF759FF030086
:100370001A00944BDA70904B1B69DBB21800FFF740
:100380004FFF03001A008F4B1A710023FB610023FB
:10039000BB6126E0874ABB69D3181B781B09D8B21A
:1003A000BB695A1DFB69591CF961D418FFF738FF66
:1003B00003001A00834B1A557E4ABB69D3181B7879
:1003C0000F221340D9B2BB695A1DFB69D41808002B
:1003D000FFF726FF03001A007A4B1A55BB69013359
:1003E000BB61754B1A69BB699A42D3D80E257B193C
:1003F0001B881B0B9BB2DAB26F4B1B695B005C1D49
:100400001000FFF70DFF03001A006E4B1A557B1901
:100410001B881B0A9BB2DBB20F221340DAB2664B79
:100420001B6903335C001000FFF7FAFE03001A009B
:10043000644B1A557B191B881B099BB2DBB20F2238
:100440001340DAB25C4B1B695B00DC1D1000FFF748
:10045000E7FE03001A005B4B1A557B191B88DBB2C1
:100460000F221340DAB2544B1B6904335C001000B6
:10047000FFF7D6FE03001A00524B1A554E4B1B696C
:100480005B0009334F4A0D21D1544B4B1B69053397
:100490005A004C4B1100180008F0A4F8464B0022FB
:1004A0001A601DE1444B5B68002B00D118E1454BFD
:1004B00054221A70404B5B681B0FDBB20F221340B3
:1004C000DBB21800FFF7ACFE03001A003D4B5A7078
:1004D000394B5B681B0EDBB20F221340DBB21800F6
:1004E000FFF79EFE03001A00364B9A70324B5B6892
:1004F0001B0DDBB20F221340DBB21800FFF790FE9A
:1005000003001A002F4BDA702B4B5B681B0CDBB21D
:100510000F221340DBB21800FFF782FE03001A001F
:10052000284B1A71244B5B681B0BDBB20F22134064
:10053000DBB21800FFF774FE03001A00214B5A715A
:100540001D4B5B681B0ADBB20F221340DBB21800A5
:10055000FFF766FE03001A001A4B9A71164B5B6890
:100560001B09DBB20F221340DBB21800FFF758FE65
:1005700003001A00134BDA710F4B5B68DBB20F22DA
:100580001340DBB21800FFF74BFE03001A000D4BBF
:100590001A72094B1B69DBB21800FFF741FE03001A
:1005A0001A00084B5A7200237B6100233B6134E040
:1005B000000400483404002054040020700400208B
:1005C00060EA00000C040020474A3B69D3181B78FE
:1005D0001B09D8B23B690A331A007B69591C79613F
:1005E000D418FFF71DFE03001A00404B1A553E4A6F
:1005F0003B69D3181B780F221340D9B23B690A33E9
:100600001A007B69D4180800FFF70AFE03001A00DD
:10061000364B1A553B6901333B61354B1A693B69CF
:100620009A42D1D80E257B191B881B0B9BB2DAB2DC
:100630002F4B1B6905335C001000FFF7F1FD030031
:100640001A002A4B1A557B191B881B0A9BB2DBB276
:100650000F221340DAB2264B1B695B000B331C00E0
:100660001000FFF7DDFD03001A00204B1A557B191F
:100670001B881B099BB2DBB20F221340DAB21C4B62
:100680001B6906335C001000FFF7CAFD03001A0067
:10069000164B1A557B191B88DBB20F221340DAB2B6
:1006A000134B1B695B000D331C001000FFF7B8FDF6
:1006B00003001A000D4B1A550D4B1B6907335B00E5
:1006C0000A4A0D21D1540A4B1B695B000F331A00F3
:1006D000064B1100180007F085FF054B00225A60F9
:1006E000C046BD4608B0B0BD340400200C04002054
:1006F0005404002090B585B000AF00F07FFB00F0FF
:1007000015F900F077F907F075FE814B1B68002B97
:10071000FBD0804B1B78742B5DD17E4B1B7918006E
:10072000FFF7ABFD03001A007B4B1A617A4B0022E6
:100730005A60794B00229A60774B0022DA60754B41
:100740005B781800FFF799FD03001B021C00714B3A
:100750009B781800FFF791FD03001B011C436D4BB4
:10076000DB781800FFF789FD030022001A436A4B6B
:100770001A60694B00221A750023FB600023BB60DE
:1007800023E0BB685A1DFB68591CF960D318614A05
:10079000D35C1800FFF771FD03001B015CB2BB685E
:1007A0005A1DFB68D3185B4AD35C1800FFF765FD40
:1007B00003005BB223435BB2D9B2584ABB68D3187B
:1007C0000A1C1A70BB680133BB60534B1A69BB68C3
:1007D0009A42D6D88BE04F4B1B78542B00D086E042
:1007E0004C4B5B7A1800FFF748FD03001A004A4B98
:1007F0001A61484B5B781800FFF73FFD03001B07A9
:100800001C00444B9B781800FFF737FD03001B06C4
:100810001C43404BDB781800FFF72FFD03001B053E
:100820001C433C4B1B791800FFF727FD03001B04FA
:100830001C43384B5B791800FFF71FFD03001B03B7
:100840001C43344B9B791800FFF717FD03001B0274
:100850001C43304BDB791800FFF70FFD03001B0131
:100860001C432C4B1B7A1800FFF707FD03002200E6
:100870001A43294B5A60284B04229A60264B0022C7
:10088000DA60254B00221A60234B00221A750023E0
:100890007B6000233B6025E03B680A331A007B68DD
:1008A000591C7960D3181B4AD35C1800FFF7E5FC8C
:1008B00003001B015CB23B680A331A007B68D31843
:1008C000144AD35C1800FFF7D8FC03005BB2234343
:1008D0005BB2D9B2114A3B68D3180A1C1A703B6844
:1008E00001333B600C4B1A693B689A42D4D80C4BDD
:1008F0000A4A09490B4800F01BFD054B00221A600B
:1009000080235B0108480022190001F09FFBFCE6F0
:1009100098010020EC0300203C0400202C0400205F
:10092000C0030020C40300200004004890B599B023
:1009300000AF2C243B19180034231A00002108F0C2
:1009400039FB1C23FB18180010231A00002108F0A3
:1009500031FB3B0018001C231A00002108F02AFB81
:1009600021007B1821221A607B1801225A607B1813
:1009700001221A627B1802225A627B1880225202DC
:100980009A627B1880225203DA627B1800221A6373
:100990007B18180003F0EAF9031E01D000F04EF9AD
:1009A0001C217B1807221A607B1803225A607B18CF
:1009B00000229A607B180022DA607B18012118005F
:1009C00003F05AFD031E01D000F038F93B008022ED
:1009D00092021A603B0080229A613B00180003F0EB
:1009E000A5FE031E01D000F029F9C046BD4619B08E
:1009F00090BD000090B589B000AF0C243B191800E1
:100A000014231A00002108F0D5FA244B5A69234B0D
:100A10008021C9030A435A61204B5A698023DB03B2
:100A20001340BB60BB681D4B5A691C4B8021C90237
:100A30000A435A61194B5A698023DB0213407B60D9
:100A40007B68164B5A69154B802189020A435A610B
:100A5000124B5A6980239B0213403B603B68C023C2
:100A60009B010F480022190001F0F0FA3B19C02247
:100A700092011A603B1901225A603B1900229A60C8
:100A80003B190022DA603B19054A1900100001F0F9
:100A900065F9C046BD4609B090BDC0460010024091
:100AA0000004004880B58AB000AF2F4B2F4A1A606F
:100AB0002D4B0C225A602C4B00229A602A4B0022AC
:100AC000DA60294BB02212031A61274B802292036D
:100AD0005A61254B00221A76234B01225A76224B6B
:100AE00000229A76204B0122DA761F4B00221A77D9
:100AF0001D4B01225A771C4B180000F0E3F9031E2E
:100B000001D000F09BF83B0001221A623B0000225A
:100B10005A613B0000221A613B0000221A603B0030
:100B200000225A603B0000229A603B000022DA60FB
:100B30003B0000229A613B000122DA613B000E2259
:100B40005A623A00084B1100180000F0B9FA064B3F
:100B5000180000F0A7FB044B0221180000F0E2FD92
:100B6000C046BD460AB080BDC403002000640040FA
:100B700080B58AB000AF2F4B2F4A1A602D4B0C2244
:100B80005A602C4B00229A602A4B0022DA60294BD3
:100B9000C02292021A61274B802292035A61254B90
:100BA00000221A76234B01225A76224B00229A7693
:100BB000204B0122DA761F4B00221A771D4B0122AF
:100BC0005A771C4B180000F07DF9031E01D000F08D
:100BD00035F83B0001221A623B0000225A613B00BB
:100BE00000221A613B0000221A603B0000225A607A
:100BF0003B0000229A603B000022DA603B000022AA
:100C00009A613B000122DA613B000E225A623A00EF
:100C1000084B1100180000F053FA064B180000F0C2
:100C200041FB044B0221180000F07CFDC046BD468C
:100C30000AB080BDC40300200064004080B500AF4E
:100C400072B6C046FEE7000080B582B000AF0F4B21
:100C50009A690E4B01210A439A610C4B9B69012250
:100C600013407B607B68094BDA69084B802149059A
:100C70000A43DA61054BDA6980235B0513403B6068
:100C80003B68C046BD4602B080BDC0460010024071
:100C900090B58BB000AF786014243B191800142372
:100CA0001A00002108F086F97B681B68204A9342ED
:100CB0003AD1204BDA691F4B802189040A43DA615B
:100CC0001C4BDA6980239B0413403B613B69194B41
:100CD0005A69184B8021C9020A435A61154B5A6957
:100CE0008023DB021340FB60FB683B19C0229200AB
:100CF0001A6021007B1802225A607B1800229A6039
:100D00007B180322DA607B1804221A617B180A4AD6
:100D10001900100001F022F8002200211E2000F02E
:100D2000EBFF1E2000F0FDFFC046BD460BB090BD9E
:100D300000640040001002400004004880B500AF8D
:100D4000FEE780B500AFFEE780B500AFC046BD4608
:100D500080BD80B500AFC046BD4680BD80B500AF48
:100D600000F094F8C046BD4680BD000080B500AFDD
:100D7000034B180000F000FDC046BD4680BDC046D4
:100D8000C403002080B500AF034B180001F0B2FA95
:100D9000C046BD4680BDC0460811002080B500AFEA
:100DA000C046BD4680BD00000D4885460D480E4931
:100DB0000E4A002302E0D458C4500433C4188C42B5
:100DC000F9D30B4A0B4C002301E013600432A2421A
:100DD000FBD3FFF7E3FF08F0C9F8FFF78BFCFEE752
:100DE00000400020000000207C0100204491000809
:100DF0007C010020FC130020FEE7000080B500AF5E
:100E0000074B1A68064B10210A431A60032000F0B2
:100E100009F8FFF719FF00231800BD4680BDC04642
:100E20000020024090B583B000AF7860144B1C687E
:100E3000144B1B781900FA239800FFF765F903009B
:100E400019002000FFF760F90300180000F079FF97
:100E5000031E01D001230FE07B68032B0BD87968B8
:100E600001235B420022180000F046FF064B7A681F
:100E70001A60002300E001231800BD4603B090BDB6
:100E800000000020080000200400002080B500AF12
:100E9000054B1B781A00054B1B68D218034B1A60D0
:100EA000C046BD4680BDC04608000020700400203A
:100EB00080B500AF024B1B681800BD4680BDC04620
:100EC0007004002080B584B000AF78607B68002B90
:100ED00001D10123F0E07B6820229B5CDBB2002B78
:100EE00003D17B681800FFF7D3FE7B681B681A6884
:100EF0007B681B6801210A431A60FFF7D9FF0300D2
:100F0000FB6013E0FFF7D4FF0200FB68D31A0A2B43
:100F10000CD97B685B6A802292021A437B685A6212
:100F20007B682022052199540123C5E07B681B685A
:100F30005B6801221340E5D07B681B681A687B68F8
:100F40001B6802218A431A60FFF7B2FF0300FB60AF
:100F500013E0FFF7ADFF0200FB68D31A0A2B0CD990
:100F60007B685B6A802292021A437B685A627B68C4
:100F700020220521995401239EE07B681B685B6851
:100F800002221340E5D17B681B7E012B08D17B68D0
:100F90001B681A687B681B6880210A431A6007E097
:100FA0007B681B681A687B681B6880218A431A600B
:100FB0007B685B7E012B08D17B681B681A687B68A5
:100FC0001B6840210A431A6007E07B681B681A68A7
:100FD0007B681B6840218A431A607B689B7E012BDB
:100FE00008D17B681B681A687B681B6820210A434C
:100FF0001A6007E07B681B681A687B681B68202101
:101000008A431A607B68DB7E012B08D17B681B68F2
:101010001A687B681B6810218A431A6007E07B68A6
:101020001B681A687B681B6810210A431A607B687A
:101030001B7F012B08D17B681B681A687B681B68C3
:1010400008210A431A6007E07B681B681A687B68FE
:101050001B6808218A431A607B685B7F012B08D1DB
:101060007B681B681A687B681B6804210A431A6046
:1010700007E07B681B681A687B681B6804218A4349
:101080001A607B689A687B68DB681A437B681B6917
:101090001A437B685B691A4311007B685B685A1EC0
:1010A0007B681B680A43DA617B6800225A627B68AE
:1010B00020220121995400231800BD4604B080BDB0
:1010C00080B586B000AF786039607B681B687B6153
:1010D00013203B187A682021525C1A700200BB185A
:1010E0001B78012B04D0BB181B78022B00D0CDE05D
:1010F0007A6980239B00D35801221A4311007A6930
:1011000080239B00D1503B685B691F221340012262
:101110009A401300FB607A6987239B00D358FA68D2
:10112000D2431A4011007A6987239B00D1503B6853
:10113000DB69002B29D17A6983239B00D358FA6895
:10114000D2431A4011007A6983239B00D1503B6837
:10115000DB6818043B685B681B04190C3B685A6920
:1011600001437B694832D200D1503B689B68190427
:101170003B681B681B041A0C3B685B690A4379696E
:101180004833DB00CB1804331A603B68DB69012B62
:1011900028D17A6983239B00D258FB681A43110037
:1011A0007A6983239B00D1503B681B6818043B6815
:1011B0005B681B04190C3B685A6901437B69483220
:1011C000D200D1503B689B6819043B68DB681B0464
:1011D0001A0C3B685B690A4379694833DB00CB181A
:1011E00004331A603B689B69002B0CD17A69812318
:1011F0009B00D358FA68D2431A4011007A698123C0
:101200009B00D1500AE07A6981239B00D258FB6889
:101210001A4311007A6981239B00D1503B681B69F6
:10122000002B0CD17A6985239B00D358FA68D243EE
:101230001A4011007A6985239B00D1500AE07A692F
:1012400085239B00D258FB681A4311007A698523D5
:101250009B00D1503B681B6A012B0AD17A69872316
:101260009B00D258FB681A4311007A6987239B00C0
:10127000D1507A6980239B00D358012293431900EF
:101280007A6980239B00D150002307E07B685B6A6A
:101290008022D2021A437B685A6201231800BD469D
:1012A00006B080BD80B584B000AF78607B68202236
:1012B0009B5CDBB2012B2FD17B6820220221995449
:1012C0007B681B681A687B681B6801218A431A6067
:1012D000FFF7EEFD0300FB6013E0FFF7E9FD0200FE
:1012E000FB68D31A0A2B0CD97B685B6A80229202B6
:1012F0001A437B685A627B68202205219954012396
:1013000012E07B681B685B6801221340E5D17B68B3
:1013100000225A62002307E07B685B6A8022120386
:101320001A437B685A6201231800BD4604B080BD91
:1013300080B588B000AFF860B9607A603B601F206C
:101340003B18FA682021525C1A70FB681B689B6886
:10135000BB613B181B78012B04D03B181B78022B78
:1013600000D0B7E0BA698023DB0413400AD1BA6920
:1013700080231B05134005D1BA6980235B05134008
:1013800000D19EE0BB691B0E032213407B617B6989
:10139000022B08D9FB685B6A802212041A43FB689F
:1013A0005A6201239EE001227B699A403B681A60E1
:1013B000BB689B68002B0CD1BB681B685905BB68D8
:1013C000DA68FB681B6811437A6918321201D15040
:1013D0000FE0BB685B68DA00BB689B681A431100CA
:1013E000BB68DA68FB681B6811437A69183212011E
:1013F000D150FB681968BB681A697B6918331B01F7
:10140000CB1804331A60BB681B7D012B12D1FB681B
:101410001A687B6918331B01D31804331A68FB68F8
:10142000196880235B001A437B6918331B01CB18B2
:1014300004331A607B6807331B781A067B6806330F
:101440001B781B041A437B6805331B781B021A4365
:101450007B6804331B781900FB6818680A437969B4
:10146000C6235B0009014118CB181A607B6803335F
:101470001B781A067B6802331B781B041A437B68AF
:1014800001331B781B021A437B681B781900FB6829
:1014900018680A437969C4235B0009014118CB1815
:1014A0001A60FB681B687A6918321201D258FB680F
:1014B0001B68012111437A6918321201D1500023AF
:1014C00010E0FB685B6A802292031A43FB685A6251
:1014D000012307E0FB685B6A8022D2021A43FB68A3
:1014E0005A6201231800BD4608B080BD80B586B0A1
:1014F00000AFF860B9607A603B6017203B18FA686B
:101500002021525C1A700200BB181B78012B04D0FA
:10151000BB181B78022B00D0F8E0BB68002B0ED163
:10152000FB681B68DB680322134017D1FB685B6A0A
:10153000802292031A43FB685A620123EEE0FB68A3
:101540001B681B690322134008D1FB685B6A802279
:1015500092031A43FB685A620123DFE0FB681B68B1
:10156000BA681B321201D35804221A407B689A6071
:101570007B689B68002B0BD1FB681B68BA681B3229
:101580001201D3585B0D5B055A0D7B681A600AE0A7
:10159000FB681B68BA681B321201D358DB08DB00FA
:1015A000DA087B685A60FB681B68BA681B32120154
:1015B000D35802221A407B68DA60FB681A68BB685D
:1015C0001B331B01D31804331B680F221A407B689E
:1015D0001A61FB681A68BB681B331B01D3180433FC
:1015E0001B681B0AFF221A407B689A61FB681A6815
:1015F000BB681B331B01D31804331B681B0C1B0473
:101600001A0C7B685A61FB681968BA68DC235B00B6
:1016100012018A18D3181B68DAB23B681A70FB688B
:101620001968BA68DC235B0012018A18D3181B689A
:101630001A0A3B680133D2B21A70FB681968BA689B
:10164000DC235B0012018A18D3181B681A0C3B6854
:101650000233D2B21A70FB681968BA68DC235B00E7
:1016600012018A18D3181B681A0E3B680333D2B2D2
:101670001A70FB681968BA68DE235B0012018A18C9
:10168000D3181A683B680433D2B21A70FB68196821
:10169000BA68DE235B0012018A18D3181B681A0A85
:1016A0003B680533D2B21A70FB681968BA68DE234A
:1016B0005B0012018A18D3181B681A0C3B680633AA
:1016C000D2B21A70FB681968BA68DE235B00120197
:1016D0008A18D3181B681A0E3B680733D2B21A70E7
:1016E000BB68002B08D1FB681B68DA68FB681B68C5
:1016F00020210A43DA6007E0FB681B681A69FB686F
:101700001B6820210A431A61002307E0FB685B6A1B
:101710008022D2021A43FB685A6201231800BD4698
:1017200006B080BD80B584B000AF786039600F200E
:101730003B187A682021525C1A700200BB181B7893
:10174000012B03D0BB181B78022B09D17B681B68C7
:1017500059697B681B683A680A435A61002307E0AD
:101760007B685B6A8022D2021A437B685A6201233B
:101770001800BD4604B080BD80B58AB000AF786067
:1017800000237B627B681B685B693B627B681B682C
:101790005B68FB617B681B689B68BB617B681B683F
:1017A000DB687B617B681B681B693B617B681B682E
:1017B0009B69FB603B6A0122134000D184E0BB6956
:1017C0000122134024D07B681B6801229A60BB6908
:1017D0000222134004D07B68180000F081F917E062
:1017E000BB690422134005D07B6A80221201134397
:1017F0007B620DE0BB690822134005D07B6A802222
:10180000520113437B6203E07B68180000F080F90B
:10181000BA6980235B00134028D07B681B68802254
:1018200052009A60BA6980239B00134004D07B6801
:10183000180000F05DF919E0BA698023DB0013405D
:1018400005D07B6A8022920113437B620EE0BA6965
:1018500080231B01134005D07B6A8022D2011343F1
:101860007B6203E07B68180000F05AF9BA698023B4
:101870005B02134028D07B681B68802252029A606A
:10188000BA6980239B02134004D07B68180000F0E3
:1018900037F919E0BA698023DB02134005D07B6A6F
:1018A0008022120213437B620EE0BA6980231B037D
:1018B000134005D07B6A8022520213437B6203E00F
:1018C0007B68180000F034F93B6A082213400CD002
:1018D0007B691022134008D07B6A80229200134358
:1018E0007B627B681B681022DA603B6A042213402B
:1018F0000BD07B690822134007D07B681B68082245
:10190000DA607B68180000F01BF93B6A0222134082
:1019100009D07B681B68DB680322134003D07B6817
:101920001800FEF7DBFC3B6A402213400CD03B69F9
:101930001022134008D07B6A8022D20013437B62BE
:101940007B681B6810221A613B6A202213400BD06F
:101950003B690822134007D07B681B6808221A6184
:101960007B68180000F0FCF83B6A1022134009D095
:101970007B681B681B690322134003D07B68180037
:1019800000F0E6F83A6A80239B0213400BD0FB6913
:101990001022134007D07B681B6810225A607B68B6
:1019A000180000F0E5F83A6A80235B0213400BD080
:1019B000FB690822134007D07B681B6808225A6025
:1019C0007B68180000F0DCF83A6A80231B021340A1
:1019D00000D174E0FB690422134000D16BE03A6A45
:1019E00080235B00134007D0FB680122134003D023
:1019F0007B6A012213437B623A6A80239B00134077
:101A000007D0FB680222134003D07B6A02221343F3
:101A10007B623A6A8023DB00134007D0FB68042214
:101A2000134003D07B6A042213437B623A6A80230B
:101A30001B0113403FD0FB68702213403BD0FB6872
:101A400070221340602B27D02CD8502B1FD029D8C0
:101A5000402B17D026D8302B0FD023D8102B02D0F4
:101A6000202B05D01EE07B6A082213437B621AE01C
:101A70007B6A102213437B6215E07B6A20221343AA
:101A80007B6210E07B6A402213437B620BE07B6A3F
:101A9000802213437B6206E07B6A8022520013435C
:101AA0007B6200E0C0467B681B689A697B681B68A4
:101AB00070218A439A617B681B6804225A607B6AA2
:101AC000002B09D07B685A6A7B6A1A437B685A628A
:101AD0007B68180000F05CF8C046BD460AB080BDC7
:101AE00080B582B000AF7860C046BD4602B080BD10
:101AF00080B582B000AF7860C046BD4602B080BD00
:101B000080B582B000AF7860C046BD4602B080BDEF
:101B100080B582B000AF7860C046BD4602B080BDDF
:101B200080B582B000AF7860C046BD4602B080BDCF
:101B300080B582B000AF7860C046BD4602B080BDBF
:101B400080B582B000AF7860C046BD4602B080BDAF
:101B500080B582B000AF7860C046BD4602B080BD9F
:101B600080B582B000AF7860C046BD4602B080BD8F
:101B700080B582B000AF7860C046BD4602B080BD7F
:101B800080B582B000AF7860C046BD4602B080BD6F
:101B900080B582B000AF7860C046BD4602B080BD5F
:101BA00080B582B000AF0200FB1D1A70FB1D1B78D0
:101BB0007F2B09D8FB1D1B781A001F231A40044BEA
:101BC000012191400A001A60C046BD4602B080BDA6
:101BD00000E100E090B583B000AF02003960FB1D6A
:101BE0001A70FB1D1B787F2B28D82F4AFB1D1B78F2
:101BF0005BB29B08C0339B009B58FA1D1278110002
:101C000003220A40D200FF2191400A00D2431A4029
:101C100011003B689B01FF221A40FB1D1B78180036
:101C200003230340DB009A401F48FB1D1B785BB277
:101C30009B080A43C0339B001A5031E01B4AFB1D2E
:101C40001B7819000F230B40083B9B0806339B00B1
:101C5000D31804331B68FA1D1278110003220A40BE
:101C6000D200FF2191400A00D2431A4011003B6884
:101C70009B01FF221A40FB1D1B7818000323034021
:101C8000DB009A400948FB1D1B781C000F232340F2
:101C9000083B9B080A4306339B00C31804331A60B1
:101CA000C046BD4603B090BD00E100E000ED00E09D
:101CB00080B582B000AF78607B685A1E80235B04D9
:101CC0009A4201D3012310E00A4B7A68013A5A6024
:101CD00001235B4203211800FFF77CFF054B002224
:101CE0009A60044B07221A6000231800BD4602B018
:101CF00080BDC04610E000E080B584B000AFB960A0
:101D00007A600F217B18021C1A70BA687B181B7846
:101D10005BB211001800FFF75DFFC046BD4604B07E
:101D200080BD80B582B000AF0200FB1D1A70FB1DA4
:101D30001B785BB21800FFF733FFC046BD4602B008
:101D400080BD80B582B000AF78607B681800FFF777
:101D5000AFFF03001800BD4602B080BD80B586B05D
:101D600000AF7860396000237B6155E13B681B68F8
:101D700001217A6991400A001340FB60FB68002B47
:101D800000D146E13B685B6803221340012B05D07C
:101D90003B685B6803221340022B30D17B689B6851
:101DA0003B617B695B0003229A401300DA433B6985
:101DB00013403B613B68DA687B695B009A40130023
:101DC0003A6913433B617B683A699A607B685B6858
:101DD0003B6101227B699A401300DA433B6913405F
:101DE0003B613B685B681B0901221A407B699A4092
:101DF00013003A6913433B617B683A695A603B6858
:101E00005B6803221340032B17D07B68DB683B61C0
:101E10007B695B0003229A401300DA433B6913405D
:101E20003B613B689A687B695B009A4013003A69A2
:101E300013433B617B683A69DA603B685B68032265
:101E40001340022B23D17B69DA087B6808329200A9
:101E5000D3583B617B69072213409B000F229A40B5
:101E60001300DA433B6913403B613B681A697B69A5
:101E700007210B409B009A4013003A6913433B61D2
:101E80007B69DA087B68083292003969D1507B6837
:101E90001B683B617B695B0003229A401300DA43B5
:101EA0003B6913403B613B685B6803221A407B69D6
:101EB0005B009A4013003A6913433B617B683A69BF
:101EC0001A603B685A68C0239B02134000D1A0E00F
:101ED000574B9A69564B01210A439A61544B9B69AF
:101EE00001221340BB60BB68524A7B699B080233E6
:101EF0009B009B583B617B69032213409B000F2290
:101F00009A401300DA433B6913403B617A6890239F
:101F1000DB059A4219D07B68474A934213D07B680D
:101F2000464A93420DD07B68454A934207D07B686E
:101F3000444A934201D1042308E0052306E0032329
:101F400004E0022302E0012300E000237A69032178
:101F50000A40920093403A6913433B6135497B69DB
:101F60009B0802339B003A695A50374B1B683B6110
:101F7000FB68DA433B6913403B613B685A68802346
:101F80005B02134003D03A69FB6813433B612E4B5D
:101F90003A691A602C4B5B683B61FB68DA433B692A
:101FA00013403B613B685A6880239B02134003D077
:101FB0003A69FB6813433B61234B3A695A60224BF1
:101FC0009B683B61FB68DA433B6913403B613B68BC
:101FD0005A6880235B03134003D03A69FB681343BC
:101FE0003B61194B3A699A60174BDB683B61FB68B0
:101FF000DA433B6913403B613B685A6880239B038B
:10200000134003D03A69FB6813433B610E4B3A69B6
:10201000DA607B6901337B613B681A687B69DA406F
:10202000131E00D0A2E6C046C046BD4606B080BD25
:102030000010024000000140000400480008004871
:10204000000C0048001000480004014080B582B038
:1020500000AF786008001100BB1C021C1A807B1CBA
:102060000A1C1A707B1C1B78002B04D0BB1C1A881E
:102070007B689A6103E0BB1C1A887B689A62C04641
:10208000BD4602B080BD0000F0B58BB006AF7860F1
:102090007B68002B01D10123FFE07B68814A9B5CB8
:1020A000DBB2002B08D17A68AA239B000021D1540F
:1020B0007B68180006F0FCFB7B687A4A0321995480
:1020C0007B681B68180002F045FC0F23FB180022F8
:1020D0001A7058E00F203B181B7879685A1C1300BF
:1020E0009B009B18DB00CB18013301221A703B18B0
:1020F0001B7879685A1C13009B009B18DB003A1868
:1021000012785A5404003B181A783B191B7898B27D
:10211000796813009B009B18DB00CB183633021C38
:102120001A803B191B7879685A1C13009B009B1876
:10213000DB00CB18033300221A703B191A78796838
:1021400013009B009B18DB00CB18383300221A6069
:102150003B191A78796813009B009B18DB00CB1899
:102160003C3300221A603B191A78796813009B00EF
:102170009B18DB00CB18403300221A603B191A78F9
:102180003B1901321A700F217B181A787B685B6843
:102190009A429FD37B1800221A7056E00F243B19F5
:1021A0001A7878686A23FF33190013009B009B1884
:1021B000DB00C3185B1800221A703B191A78786884
:1021C000B423590013009B009B18DB00C3185B1855
:1021D0003A1912781A703B191A7878686C23FF3311
:1021E000190013009B009B18DB00C3185B1800222A
:1021F0001A703B191A787868BC23590013009B00A9
:102200009B18DB00C3185B1800221A603B191A7870
:102210007868BE23590013009B009B18DB00C3188D
:102220005B1800221A603B191A787868C02359009D
:1022300013009B009B18DB00C3185B1800221A6078
:102240003B191A783B1901321A700F23FB181A78C0
:102250007B685B689A42A1D37B6818687B686A4692
:1022600011001A00103270CA70C130CA30C15968EA
:102270009A68DB6802F088FB7B682422002199546D
:102280007B68084A012199547B68DB69012B03D1E3
:102290007B68180001F034FD00231800BD4605B02E
:1022A000F0BDC046A902000080B582B000AF7860E2
:1022B0007A68AA239B00D35C012B01D1022314E08E
:1022C0007A68AA239B000121D1547B681B681800FF
:1022D00002F02AFB7B681B68180004F085FA7A6814
:1022E000AA239B000021D15400231800BD4602B050
:1022F00080BD000080B582B000AF78607B681B684D
:10230000180004F087FA020080231B021A40802381
:102310001B029A4203D17B68180000F0BBFB7B686C
:102320001B68180004F076FA02008023DB001A40D4
:102330008023DB009A4214D17B681B6844229B5A9D
:102340009AB27B681B68A2490A4091B24422995212
:102350007B68180006F037FB7B680021180000F04E
:1023600045F97B681B68180004F054FA02008023CA
:10237000DB011A408023DB019A420BD17B681B688A
:1023800044229B5A9AB27B681B6892490A4091B2D8
:10239000442299527B681B68180004F03BFA020043
:1023A00080239B011A4080239B019A420BD17B68BA
:1023B0001B6844229B5A9AB27B681B6886490A4074
:1023C00091B2442299527B681B68180004F022FAEB
:1023D000020080235B011A4080235B019A4237D1BF
:1023E0007B681B6840229B5A9AB27B681B68042159
:1023F0008A4391B2402299527B681B6840229B5AC3
:102400009AB27B681B6808218A4391B24022995294
:102410007A68B8239B00D35C012B09D17A68B82372
:102420009B000021D1547B680021180001F092FC30
:102430007B68180006F008FB7B681B6844229B5AE7
:102440009AB27B681B6865490A4091B2442299524E
:102450007B681B68180004F0DDF9020080231B0173
:102460001A4080231B019A4227D17B681B684022B7
:102470009B5A9AB27B681B6808210A4391B240229A
:1024800099527B681B6844229B5A9AB27B681B68EE
:1024900053490A4091B2442299527B681B684022FA
:1024A0009B5A9AB27B681B6804210A4391B240226E
:1024B00099527B68180006F0ABFA7B681B6818001D
:1024C00004F0A8F9030080221340802B45D17B68DB
:1024D0001B6844229B5A9AB27B681B6880218A43FE
:1024E00091B2442299527A68B8239B00D35C002BA6
:1024F0002FD17B681B6840229B5A9AB27B681B686D
:1025000004210A4391B2402299527B681B68402201
:102510009B5A9AB27B681B6808210A4391B24022F9
:1025200099527A68B8239B000121D1547B681B68BB
:1025300054229B5A9BB29B083C22134019007A6894
:10254000B9239B00D1507B680121180001F002FCE7
:1025500003E07B68180006F05BFA7B681B681800D4
:1025600004F058F9020080239B001A4080239B004E
:102570009A420FD17B681B6844229B5A9AB27B68AF
:102580001B6818490A4091B2442299527B6818008E
:1025900006F00AFA7B681B68180004F03BF9020099
:1025A00080235B001A4080235B009A420BD17B683A
:1025B0001B6844229B5A9AB27B681B680A490A40EE
:1025C00091B244229952C046BD4602B080BDC04679
:1025D000FFFBFFFFFFBFFFFFFFDFFFFFFFEFFFFF7F
:1025E000FFF7FFFFFFFDFFFFFFFEFFFF80B582B09B
:1025F00000AF78600A00FB1C1A707A68AA239B005F
:10260000D35C012B01D1022317E07A68AA239B0037
:102610000121D1547B68FA1C242112785A547B681A
:102620001A68FB1C1B781900100004F0C9F87A68BE
:10263000AA239B000021D15400231800BD4602B0FC
:1026400080BD90B585B000AF78600C001000190017
:10265000FB1C221C1A703B00021C1A80BB1C0A1CAB
:102660001A700B23FB1800221A70FB1C1B785BB23C
:10267000002B0FDAFB1C1B78072213405A1C130097
:102680009B009B18DB007A68D318FB60FB68012273
:102690005A700FE0FB1C1B7807221A4013009B00A6
:1026A0009B18DB006933FF337A68D318FB60FB6843
:1026B00000225A70FB1C1B7807221340DAB2FB6819
:1026C0001A703B001A88FB681A61FB68BA1C127802
:1026D000DA70FB685B78002B04D0FB681B789AB239
:1026E000FB68DA81BB1C1B78022B02D1FB6800223D
:1026F0001A717A68AA239B00D35C012B01D10223B3
:1027000013E07A68AA239B000121D1547B681B68DF
:10271000FA681100180002F063F97A68AA239B0096
:102720000021D1540B23FB181B781800BD4605B0BF
:1027300090BD80B584B000AF78600A00FB1C1A70B1
:10274000FB1C1B785BB2002B0FDAFB1C1B780722EB
:1027500013405A1C13009B009B18DB007A68D318A7
:10276000FB60FB6801225A700FE0FB1C1B780722FC
:102770001A4013009B009B18DB006933FF337A6813
:10278000D318FB60FB6800225A70FB1C1B780722E1
:102790001340DAB2FB681A707A68AA239B00D35CF4
:1027A000012B01D1022311E07A68AA239B000121A9
:1027B000D1547B681B68FA681100180002F084FC91
:1027C0007A68AA239B000021D15400231800BD463B
:1027D00004B080BD80B586B000AFF8607A603B6021
:1027E0000B203B180A1C1A7001007B181B7807226B
:1027F0001A4013009B009B18DB006933FF33FA6813
:10280000D3187B617B697A685A617B693A689A61FF
:102810007B690022DA617B6900225A707B181B7881
:1028200007221340DAB27B691A707B181B780722E3
:10283000134007D1FB681B687A691100180002F089
:1028400003FE06E0FB681B687A691100180002F0BD
:10285000FBFD00231800BD4606B080BD80B582B0E8
:1028600000AF78600A00FB1C1A70FB1C1B78072263
:102870001A407868C223590013009B009B18DB00A4
:10288000C3185B181B681800BD4602B080BD80B538
:1028900086B000AFF8607A603B600B203B180A1CE2
:1028A0001A703B181B78072213405A1C13009B0018
:1028B0009B18DB00FA68D3187B617B697A685A61E0
:1028C0007B693A689A617B692422012199547B696A
:1028D0003A681A627B690022DA617B6901225A70C8
:1028E0003B181B7807221340DAB27B691A703B1839
:1028F0001B780722134007D1FB681B687A69110017
:10290000180002F0A1FD06E0FB681B687A6911005F
:10291000180002F099FD00231800BD4606B080BDE6
:1029200080B584B000AF78600A00FB1C1A70FB1CF5
:102930001B7807221A407B685B689A4201D9012301
:1029400046E0FB1C1B785BB2002B0FDAFB1C1B78EC
:10295000072213405A1C13009B009B18DB007A6867
:10296000D318FB60FB6801225A700DE0FB1C1A783B
:1029700013009B009B18DB006933FF337A68D31880
:10298000FB60FB6800225A70FB6801229A70FB1CF6
:102990001B7807221340DAB2FB681A707A68AA2300
:1029A0009B00D35C012B01D1022311E07A68AA239A
:1029B0009B000121D1547B681B68FA681100180044
:1029C00003F0FCFD7A68AA239B000021D154002368
:1029D0001800BD4604B080BD80B584B000AF7860FB
:1029E0000A00FB1C1A70FB1C1B780F221A407B6824
:1029F0005B689A4201D9012348E0FB1C1B785BB25B
:102A0000002B0FDAFB1C1B78072213405A1C130003
:102A10009B009B18DB007A68D318FB60FB680122DF
:102A20005A700FE0FB1C1B7807221A4013009B0012
:102A30009B18DB006933FF337A68D318FB60FB68AF
:102A400000225A70FB6800229A70FB1C1B78072238
:102A50001340DAB2FB681A707A68AA239B00D35C31
:102A6000012B01D1022311E07A68AA239B000121E6
:102A7000D1547B681B68FA681100180003F0EEFD62
:102A80007A68AA239B000021D15400231800BD4678
:102A900004B080BDB0B596B000AF786000F0D8FB50
:102AA0007B681A6856203B184421525A1A803B18FA
:102AB0001B88DAB255243B190F210A401A703B19C2
:102AC0001B78002B00D079E13B181B8810221340A3
:102AD00054D17B681B681B889AB20E203B18AF4903
:102AE0000A401A807B681B683A181288AC490A436E
:102AF00092B21A807B682833FB647B681B68502283
:102B00009B5A9BB21A00FB6C1B78DB00D2187B68C7
:102B10001B68D318A34A944663441B889B059A0DEF
:102B2000FB6CDA61FB6C5A69FB6CDB69D218FB6CDD
:102B30005A617B680021180005F018FF7B68242289
:102B40009B5CDBB2002B01D100F082FBFB6C9B692C
:102B5000002B01D000F07CFB7B6824229B5CDBB265
:102B6000802252421343DAB27B681B6891B24C2236
:102B700099527B6824220021995469E37B68693368
:102B8000FF33FB647B681A6852217B1812881A8015
:102B90007B181A8880231B01134037D07B681B6881
:102BA00050229B5A9BB21A00FB6C1B78DB00D21898
:102BB0007B681B68D3187C4A944663441B889B053A
:102BC0009A0DFB6CDA617B6818687B68AC22920016
:102BD0009918FB6CDA88FB6CDB699BB203F06CFE26
:102BE0007B681B681B889AB210203B186F490A400B
:102BF0001A807B681B683A18128880210A4392B2B7
:102C00001A807B68180005F07BFE21E35223FB1835
:102C100000229B5E002B00DB1AE37B681B681B888D
:102C20009AB21E203B1861490A401A807B681B68D3
:102C30003A18128880210A4392B21A807B681B6876
:102C400050229B5A9BB21A00FB6C1B78DB00D218F7
:102C50007B681B68D318544A944663441B889B05C1
:102C60009A0DFB6CDA61FB6CDB69002B1AD0FB6CF4
:102C70005B69002B16D07B681868FB6C5969FB6C8C
:102C8000DA88FB6CDB699BB203F016FEFB6C5A69B9
:102C9000FB6CDB69D218FB6C5A617B680021180061
:102CA00005F043FE7B681B681B889BB21A008023DB
:102CB0001B01134000D0CBE27B681B68BB617B68C3
:102CC0001B6850229B5A9BB21A00BB699B18BB61C0
:102CD000BB69354A944663447B61FB6C1B69002BDE
:102CE00010D17B691B889BB2314A13409AB27B6931
:102CF0001A807B691B889BB2294A13439AB27B696D
:102D00001A802BE0FB6C1B693E2B12D8FB6C1B69F5
:102D10005B087B64FB6C1B690122134002D07B6C57
:102D200001337B647B6C9BB29B029AB27B691A80F5
:102D300014E0FB6C1B695B097B64FB6C1B691F2245
:102D4000134002D17B6C013B7B647B6C9BB29B028A
:102D50009BB2134A13439AB27B691A807B681B6843
:102D60001B889AB212203B1812490A401A803B185D
:102D70003A181288802149014A401A803B183A18B3
:102D80001288802189014A401A807B681B683A18A2
:102D9000128809490A4392B21A8059E20F8FFFFF45
:102DA0000080FFFF02040000060400008F0F0000F7
:102DB000FF83FFFF8FBFFFFF8080FFFF7B681B68E3
:102DC0001A0055203B181B789B00D21852217B1803
:102DD00012881A807B1800229B5E002B00DBFAE031
:102DE0007B681B681A003B181B789B00D3181B8854
:102DF0009AB250243B19CF490A401A807B681B685D
:102E00001A003B181B789B00D3183A1912888021AE
:102E10000A4392B21A803B181A7813009B009B1841
:102E2000DB006933FF337A68D318FB64FB6C1B7BD0
:102E3000002B25D17B681B6850229B5A9BB21A003D
:102E4000FB6C1B78DB00D2187B681B68D318BA4A6E
:102E5000944663441A8848243B199205920D1A80BF
:102E60003B191B88002B00D18DE07B681868FB6C38
:102E70005969FB6CDA883B191B8803F01DFD82E061
:102E8000FB6CDB78022B0CD14823FC185223FB1877
:102E90001A88F96C7B68180000F0EEF903002380B3
:102EA00071E07B681B681A00FB6C1B789B00D318D1
:102EB0001B889AB24A203B18A0490A401A807B68B6
:102EC0001B681A00FB6C1B789B00D3183A181288F9
:102ED0009B490A4392B21A807B681B681A00FB6CFC
:102EE0001B789B00D3181B889BB21A008023DB0140
:102EF000134024D07B681B6850229B5A9BB21A0057
:102F0000FB6C1B78DB00D2187B681B68D3188D4ADA
:102F1000944663441A8848243B199205920D1A80FE
:102F20003B191B88002B2ED07B681868FB6C5969F5
:102F3000FB6C1A893B191B8803F0BEFC23E07B68FD
:102F40001B6850229B5A9BB21A00FB6C1B78DB005B
:102F5000D2187B681B68D318774A944663441A8852
:102F600048243B199205920D1A803B191B88002BAF
:102F700009D07B681868FB6C5969FB6C5A893B194E
:102F80001B8803F099FCFB6CDA6948217B181B88CD
:102F9000D218FB6CDA61FB6C5A697B181B88D2185B
:102FA000FB6C5A61FB6C9B69002B05D07B181A885F
:102FB000FB6C1B699A4207D2FB6C1A787B68110084
:102FC000180005F0B2FC06E07B681B68FA6C110083
:102FD000180002F039FA52243B191B888022134052
:102FE00000D135E155203B181B785A1C13009B007B
:102FF0009B18DB007A68D318FB647B681B681A0097
:103000003B181B789B00D3181B889AB242257B196A
:103010004D490A401A807B681B681A003B181B78D0
:103020009B00D3187A19128848490A4392B21A8031
:10303000FB6CDB78022B00D1ADE0FB6C00229A61C7
:103040003B191B884022134046D0FB6C5B78002B59
:1030500025D17B681B687B627B681B6850229B5A6A
:103060009BB21A007B6A9B187B62FB6C1B78DA00B0
:103070007B6AD318334A944663443B623B6A1B889D
:103080009BB2334A13409AB23B6A1A803B6A1B8850
:103090009BB22E4A13439AB23B6A1A8073E0FB6CD0
:1030A0005B78012B6FD17B681B68FB627B681B68B8
:1030B00050229B5A9BB21A00FB6A9B18FB62FB6C66
:1030C0001B78DA00FB6AD3181E4A94466344BB623D
:1030D000BB6A00221A8056E07B681B68FB63FB6CAE
:1030E0005B78002B36D17B681B687B637B681B6831
:1030F00050229B5A9BB21A007B6B9B187B63FB6C24
:103100001B78DA007B6BD3180B4A944663443B630D
:103110003B6B1B889BB20E4A13409AB23B6B1A80E2
:103120003B6B1B889BB2094A13439AB23B6B1A80D4
:1031300029E0C0468F0F0000060400008F8FFFFFBC
:10314000C080FFFF020400000F8FFFFF0080FFFF21
:10315000FF83FFFFFB6C5B78012B14D17B681B683E
:1031600050229B5A9BB21A00FB6B9B18FB63FB6CB3
:103170001B78DA00FB6BD3183D4A94466344BB636B
:10318000BB6B00221A80FB6C1A787B681100180058
:1031900005F0ECFB5CE0FB6CDB78022B50D152239A
:1031A000FB181A8880235B00134049D17B681B6899
:1031B00050229B5A9BB21A00FB6C1B78DB00D21882
:1031C0007B681B68D3182B4A944663441A884021B5
:1031D0007B189205920D1A80FB6C9A697B181B88EC
:1031E0009A4207D9FB6C9A697B181B88D21AFB6C30
:1031F0009A6102E0FB6C00229A61FB6C9B69002BD8
:1032000007D1FB6C1A787B681100180005F0AEFB43
:103210001EE0FB6C5A6940217B181B88D218FB6C9E
:103220005A61FB6CDA697B181B88D218FB6CDA6177
:103230007B681B68FA6C1100180002F005F907E0C2
:103240005223FB181A88F96C7B68180000F030F9DB
:103250007B681B6844229B5A9BB21BB2002B01DA8D
:10326000FFF71EFC00231800BD4616B0B0BDC046D7
:10327000060400000204000090B589B000AFF860B9
:10328000B960BB1D1A80BB1D1A888023DB01134067
:1032900000D17DE0FB681B6850229B5A9BB21A004C
:1032A000BB681B78DB00D218FB681B68D3187A4A0E
:1032B000944663441A881A217B189205920D1A804D
:1032C000BB689A697B181B889A4207D3BB689A69C6
:1032D0007B181B88D21ABB689A6102E0BB68002287
:1032E0009A61BB689B69002B21D1FB681B681A009F
:1032F000BB681B789B00D3181B889AB218203B1818
:1033000066490A401A803B183A18128880218901C0
:103310004A401A80FB681B681A00BB681B789B0038
:10332000D3183A1812885E490A4392B21A80BB1D1C
:103330001B88402213401AD0FB681B681A00BB6828
:103340001B789B00D3181B889AB216203B1855494E
:103350000A401A80FB681B681A00BB681B789B0038
:10336000D3183A18128850490A4392B21A801A2484
:103370003B191B88002B00D186E0FB681868BB68EE
:103380005969BB681A893B191B8803F095FA7BE0E1
:10339000FB681B6850229B5A9BB21A00BB681B78C3
:1033A000DB00D218FB681B68D318404A944663447C
:1033B0001A881A217B189205920D1A80BB689A69A7
:1033C0007B181B889A4207D3BB689A697B181B88B5
:1033D000D21ABB689A6102E0BB6800229A61BB689E
:1033E0009B69002B21D1FB681B681A00BB681B7806
:1033F0009B00D3181B889AB21E203B1827490A400D
:103400001A803B183A181288802189014A401A8094
:10341000FB681B681A00BB681B789B00D3183A181E
:1034200012881F490A4392B21A80BB1D1B88402292
:1034300013401AD1FB681B681A00BB681B789B00FD
:10344000D3181B889AB21C203B1816490A401A80D0
:10345000FB681B681A00BB681B789B00D3183A18DE
:10346000128811490A4392B21A801A243B191B8808
:10347000002B09D0FB681868BB685969BB685A897A
:103480003B191B8803F018FA1A23FB181B88180035
:10349000BD4609B090BDC046020400008FBFFFFFCB
:1034A0008080FFFF8F8FFFFFC080FFFF06040000BA
:1034B00080B5A2B000AFF860B960BB1D1A80BB1D1B
:1034C0001B884022134000D1C8E1FB681B685022D2
:1034D0009B5A9BB21A00BB681B78DB00D218FB68B2
:1034E0001B68D318D74A944663441A884E217B1828
:1034F0009205920D1A80BB689A697B181B889A42C4
:1035000007D9BB689A697B181B88D21ABB689A6175
:1035100002E0BB6800229A61BB689B69002B00D067
:10352000B5E0BB685B78002B25D1FB681B68BB62EC
:10353000FB681B6850229B5A9BB21A00BB6A9B18FF
:10354000BB62BB681B78DA00BB6AD318BD4A9446DD
:1035500063447B627B6A1B889BB2BB4A13409AB26E
:103560007B6A1A807B6A1B889BB2B84A13439AB263
:103570007B6A1A801BE0BB685B78012B17D1FB6864
:103580001B683B63FB681B6850229B5A9BB21A0066
:103590003B6B9B183B63BB681B78DA003B6BD31813
:1035A000A84A94466344FB62FB6A00221A80FB68C7
:1035B0001B683B62BB685B78002B25D1FB681B68EE
:1035C000BB61FB681B6850229B5A9BB21A00BB6907
:1035D0009B18BB61BB681B78DA00BB69D3189C4A97
:1035E000944663447B617B691B889BB2964A134077
:1035F0009AB27B691A807B691B889BB2934A1343FA
:103600009AB27B691A8018E0BB685B78012B14D1F1
:10361000FB681B6850229B5A9BB21A003B6A9B189E
:103620003B62BB681B78DA003B6AD318884A944631
:103630006344FB61FB6900221A80BB681A78FB684F
:103640001100180005F092F9BB1D1A888023DB01D8
:10365000134000D1D4E2FB681B681A00BB681B78DA
:103660009B00D3181B889AB212203B1879490A4054
:103670001A80FB681B681A00BB681B789B00D31874
:103680003A18128874490A4392B21A80B8E2BB1DF4
:103690001A888023DB0113401AD0FB681B681A00CC
:1036A000BB681B789B00D3181B889AB244203B1838
:1036B00068490A401A80FB681B681A00BB681B78BF
:1036C0009B00D3183A18128863490A4392B21A80B1
:1036D000BB6824229B5C012B00D091E2BB685A6935
:1036E0004E217B181B88D218BB685A61BB68DA6907
:1036F0007B181B88D218BB68DA61BB681A6ABB6882
:103700001B699A4209D3BB681B693B65BB681A6A8F
:103710003B6DD21ABB681A6216E0BB681B6A002BAD
:1037200008D14E23FB181B883B65BB68242200216F
:10373000995409E0BB68242200219954BB681B6A94
:103740003B65BB6800221A62BB685B78002B50D1D6
:10375000FB681B68BB63FB681B6850229B5A9BB2CB
:103760001A00BB6B9B18BB63BB681B78DA00BB6B92
:10377000D318344A944663447B633B6D002B10D1CD
:103780007B6B1B889BB2304A13409AB27B6B1A80CA
:103790007B6B1B889BB22D4A13439AB27B6B1A80BA
:1037A00044E03B6D3E2B10D83B6D5B08BB643B6D2A
:1037B0000122134002D0BB6C0133BB64BB6C9BB2D3
:1037C0009B029AB27B6B1A8030E03B6D5B09BB6455
:1037D0003B6D1F22134002D1BB6C013BBB64BB6C31
:1037E0009BB29B029BB2194A13439AB27B6B1A801D
:1037F0001CE0BB685B78012B18D1FB681B683B643D
:10380000FB681B6850229B5A9BB21A003B6C9B18AA
:103810003B64BB681B78DA003B6CD318094A9446BA
:103820006344FB633B6D9AB2FB6B1A80FB681868BC
:10383000BB685969BB681A893B6D9BB202F0F8FFFF
:10384000DEE1C04602040000FF83FFFF0080FFFFAF
:10385000060400008F8FFFFF80C0FFFFFB681B681E
:1038600050229B5A9BB21A00BB681B78DB00D2180F
:10387000FB681B68D318CA4A944663441A884E21D1
:103880007B189205920D1A80BB689A697B181B8879
:103890009A4207D3BB689A697B181B88D21ABB6807
:1038A0009A6102E0BB6800229A61BB689B69002BA9
:1038B00000D0C0E0BB685B78002B25D1FB681B689B
:1038C000FB66FB681B6850229B5A9BB21A00FB6E7A
:1038D0009B18FB66BB681B78DA00FB6ED318B14AF5
:1038E00094466344BB66BB6E1B889BB2AE4A1340D2
:1038F0009AB2BB6E1A80BB6E1B889BB2AB4A134355
:103900009AB2BB6E1A801BE0BB685B78012B17D1A3
:10391000FB681B687B67FB681B6850229B5A9BB245
:103920001A007B6F9B187B67BB681B78DA007B6F84
:10393000D3189C4A944663443B673B6F00221A802D
:10394000FB681B68BB67BB685B78002B30D1FB68EA
:103950001B6880217A181360FB681B6850229B5AF1
:103960009BB21A007B181B689B187A181360BB68FF
:103970001B78DA007B181B68D318894A9446634485
:1039800084217A1813607B181B681B889BB2864AB7
:1039900013409AB27B181B681A807B181B681B881F
:1039A0009BB2824A13439AB27B181B681A8018E0B4
:1039B000BB685B78012B14D1FB681B6850229B5AB3
:1039C0009BB21A00BB6F9B18BB67BB681B78DA0001
:1039D000BB6FD318724A94466344FB67FB6F0022A7
:1039E0001A80BB681A78FB681100180004F0BEFF4B
:1039F000BB1D1A888023DB01134000D000E1FB6867
:103A00001B681A00BB681B789B00D3181B889AB2EE
:103A100046203B1866490A401A80FB681B681A005A
:103A2000BB681B789B00D3183A18128861490A4377
:103A300092B21A80E4E0BB1D1A888023DB01134098
:103A40001AD1FB681B681A00BB681B789B00D3184F
:103A50001B889AB24C203B1855490A401A80FB68D3
:103A60001B681A00BB681B789B00D3183A18128891
:103A700050490A4392B21A80BB6824229B5C012BF6
:103A800000D0BDE0BB685A694E217B181B88D21854
:103A9000BB685A61BB68DA697B181B88D218BB689F
:103AA000DA61BB681A6ABB681B699A4209D3BB68B2
:103AB0001B693B65BB681A6A3B6DD21ABB681A6208
:103AC00016E0BB681B6A002B08D14E23FB181B882D
:103AD0003B65BB6824220021995409E0BB681B6A3E
:103AE0003B65BB6800221A62BB68242200219954FE
:103AF000FB681B687B66BB685B78002B5CD1FB684E
:103B00001B68FB65FB681B6850229B5A9BB21A001E
:103B1000FB6D9B18FB65BB681B78DA00FB6DD31847
:103B20001F4A94466344BB653B6D002B10D1BB6DAF
:103B30001B889BB21C4A13409AB2BB6D1A80BB6DA6
:103B40001B889BB2194A13439AB2BB6D1A804DE091
:103B50003B6D3E2B10D83B6D5B087B653B6D0122B6
:103B6000134002D07B6D01337B657B6D9BB29B0262
:103B70009AB2BB6D1A8039E03B6D5B097B653B6D8A
:103B80001F22134002D17B6D013B7B657B6D9BB295
:103B90009B029BB2054A13439AB2BB6D1A8025E083
:103BA0000604000002040000FF83FFFF0080FFFF07
:103BB0008F8FFFFF80C0FFFFBB685B78012B15D1A3
:103BC000FB681B6850229B5A9BB21A007B6E9B18A5
:103BD0007B66BB681B78DA007B6ED3181E4A94465E
:103BE00063443B663B6D9AB23B6E1A80FB68186873
:103BF000BB685969BB685A893B6D9BB202F018FEDD
:103C0000FB681B681A00BB681B789B00D3181B88D5
:103C10009AB210203B1811490A401A803B183A18F2
:103C2000128810214A401A803B183A181288202125
:103C30004A401A80FB681B681A00BB681B789B000F
:103C4000D3183A18128806490A4392B21A80002300
:103C50001800BD4622B080BD06040000BF8FFFFFE4
:103C60008080FFFF90B587B000AFF86008001100BA
:103C70007B600A243B19021C1A800823FB180A1CCB
:103C80001A8021007B181B88802213409BB2002BD6
:103C90000CD07B181B88072213405A1C13009B0072
:103CA0009B18DB00FA68D3187B610BE00A23FB1832
:103CB0001A8813009B009B18DB006933FF33FA68F6
:103CC000D3187B610823FB181B88002B07D17B6965
:103CD00000221A737B689AB27B69DA800BE07B69F9
:103CE00001221A737B689AB27B691A817B681B0C6C
:103CF0009AB27B695A8100231800BD4607B090BD77
:103D000080B584B000AF78607B681B68FB607A6820
:103D1000BA239B000121D1507A68B8239B0000216F
:103D2000D154FB6854229B5A9BB20122134399B28F
:103D3000FB6854229952FB6854229B5A9BB2022280
:103D4000134399B2FB685422995200231800BD46D0
:103D500004B080BD80B582B000AF78600A00FB1C63
:103D60001A70C046BD4602B080BD000080B588B064
:103D700000AF78607B68002B02D1012300F076FB56
:103D80007B681B680122134000D18EE0C54B5B6845
:103D90000C221340042B0ED0C24B5B680C22134044
:103DA000082B17D1BF4B5A68C0235B021A408023EF
:103DB0005B029A420ED1BB4B1A6880239B021340D0
:103DC00000D171E07B685B68002B00D06CE00123C0
:103DD00000F04CFB7B685B68012B07D1B14B1A6884
:103DE000B04B802149020A431A602FE07B685B6870
:103DF000002B0CD1AB4B1A68AA4BAB490A401A6096
:103E0000A84B1A68A74BA9490A401A601EE07B68B4
:103E10005B68052B0ED1A34B1A68A24B8021C90207
:103E20000A431A609F4B1A689E4B802149020A433D
:103E30001A600BE09B4B1A689A4B9B490A401A6028
:103E4000984B1A68974B99490A401A607B685B68DF
:103E5000002B14D0FDF72CF80300BB6108E0FDF740
:103E600027F80200BB69D31A642B01D90323FDE2B2
:103E70008C4B1A6880239B021340F0D015E0FDF7AD
:103E800017F80300BB6108E0FDF712F80200BB69F8
:103E9000D31A642B01D90323E8E2824B1A688023EA
:103EA0009B021340F0D100E0C0467B681B680222F1
:103EB000134000D16CE07B4B5B680C2213400ED0AA
:103EC000784B5B680C221340082B1FD1754B5A6846
:103ED000C0235B021A4080231B029A4216D1714B09
:103EE0001B680222134005D07B68DB68012B01D0E0
:103EF0000123BBE26B4B1B68F822934319007B68DC
:103F00001B69DA00674B0A431A6041E07B68DB6893
:103F1000002B24D0634B1A68624B01210A431A60BC
:103F2000FCF7C6FF0300BB6108E0FCF7C1FF02001D
:103F3000BB69D31A022B01D9032397E2594B1B68A3
:103F400002221340F1D0574B1B68F822934319000B
:103F50007B681B69DA00534B0A431A6018E0514B27
:103F60001A68504B01218A431A60FCF7A1FF030035
:103F7000BB6108E0FCF79CFF0200BB69D31A022B6F
:103F800001D9032372E2474B1B6802221340F1D18F
:103F90007B681B680822134036D07B68DB69002BE6
:103FA00019D0404B5A6A3F4B01210A435A62FCF731
:103FB0007FFF0300BB6108E0FCF77AFF0200BB69EA
:103FC000D31A022B01D9032350E2364B5B6A02223B
:103FD0001340F1D018E0334B5A6A324B01218A4327
:103FE0005A62FCF765FF0300BB6108E0FCF760FF65
:103FF0000200BB69D31A022B01D9032336E2294BF5
:104000005B6A02221340F1D17B681B6804221340D3
:1040100000D1B5E01F203B1800221A70214BDA694D
:1040200080235B05134010D11E4BDA691D4B8021A4
:1040300049050A43DA611B4BDA6980235B051340AB
:10404000FB60FB683B1801221A70194B1A68802329
:104050005B0013401AD1164B1A68154B802149009A
:104060000A431A60FCF724FF0300BB6108E0FCF779
:104070001FFF0200BB69D31A642B01D90323F5E1AA
:104080000B4B1A6880235B001340F0D07B689B6861
:10409000012B0FD1034B1A6A024B01210A431A620A
:1040A00036E0C04600100240FFFFFEFFFFFFFBFFAF
:1040B000007000407B689B68002B0CD1CA4B1A6AC9
:1040C000C94B01218A431A62C74B1A6AC64B0421A5
:1040D0008A431A621CE07B689B68052B0CD1C24B9B
:1040E0001A6AC14B04210A431A62BF4B1A6ABE4BBB
:1040F00001210A431A620BE0BB4B1A6ABA4B012139
:104100008A431A62B84B1A6AB74B04218A431A626F
:104110007B689B68002B14D0FCF7CAFE0300BB61D0
:1041200009E0FCF7C5FE0200BB69D31AAF4A93420F
:1041300001D903239AE1AC4B1B6A02221340F0D051
:1041400013E0FCF7B5FE0300BB6109E0FCF7B0FE2D
:104150000200BB69D31AA54A934201D9032385E122
:10416000A14B1B6A02221340F0D11F23FB181B78BE
:10417000012B05D19C4BDA699B4B9D490A40DA61C2
:104180007B681B681022134063D07B685B69012B3E
:104190002AD1954B5A6B944B04210A435A63924B94
:1041A0005A6B914B01210A435A63FCF781FE0300CD
:1041B000BB6108E0FCF77CFE0200BB69D31A022B4E
:1041C00001D9032352E1884B5B6B02221340F1D0EB
:1041D000854B5B6BF822934319007B689B69DA007F
:1041E000814B0A435A6334E07B685B69053311D124
:1041F0007D4B5A6B7C4B04218A435A637A4B5B6B31
:10420000F822934319007B689B69DA00764B0A43D6
:104210005A631EE0744B5A6B734B04210A435A6372
:10422000714B5A6B704B01218A435A63FCF740FE75
:104230000300BB6108E0FCF73BFE0200BB69D31A38
:10424000022B01D9032311E1674B5B6B0222134060
:10425000F1D17B681B68202213405CD0624B5B6805
:104260000C2213400C2B0ED05F4B5B680C221340CA
:10427000082B14D15C4B5A68C0235B021A40C02340
:104280005B029A420BD1584B5A6B80235B0213405E
:1042900040D07B681B6A012B3CD00123E6E07B68A1
:1042A0001B6A002B1BD0504B5A6B4F4B802149028D
:1042B0000A435A63FCF7FCFD0300BB6108E0FCF70E
:1042C000F7FD0200BB69D31A022B01D90323CDE00D
:1042D000454B5A6B80235B021340F0D01BE0424BEE
:1042E0005A6B414B43490A405A63FCF7E1FD030016
:1042F000BB6108E0FCF7DCFD0200BB69D31A022BAE
:1043000001D90323B2E0384B5A6B80235B02134080
:10431000F0D100E0C0467B685B6A002B00D1A4E0CE
:10432000314B5B680C221340082B00D178E07B688E
:104330005B6A022B4CD12C4B1A682B4B2E490A403E
:104340001A60FCF7B5FD0300BB6108E0FCF7B0FDA7
:104350000200BB69D31A022B01D9032386E0224B4A
:104360001A6880239B041340F0D11F4BDB6A0F2295
:10437000934319007B681A6B1B4B0A43DA621A4B92
:104380005B681E4A134019007B68DA6A7B689B6A87
:104390001A43154B0A435A60134B1A68124B80217B
:1043A00049040A431A60FCF783FD0300BB6108E07F
:1043B000FCF77EFD0200BB69D31A022B01D903234F
:1043C00054E0094B1A6880239B041340F0D04CE062
:1043D000054B1A68044B08490A401A60FCF768FD4F
:1043E0000300BB6115E0C0460010024088130000C6
:1043F000FFFFFFEFFFFFFEFFFFFFFFFEFF7FC2FF9C
:10440000FCF756FD0200BB69D31A022B01D9032326
:104410002CE0184B1A6880239B041340F0D124E051
:104420007B685B6A012B01D101231FE0114B5B68A4
:104430007B61104BDB6A3B617A69C0235B021A40E7
:104440007B689B6A9A420ED13B690F221A407B68B7
:104450001B6B9A4207D17A69F0239B031A407B6851
:10446000DB6A9A4201D0012300E000231800BD4618
:1044700008B080BD0010024080B584B000AF786005
:1044800039607B68002B01D10123BFE0614B1B68C1
:10449000012213403A689A4211D95E4B1B680122EF
:1044A000934319005B4B3A680A431A60594B1B68E7
:1044B000012213403A689A4201D00123A6E07B68AA
:1044C0001B680222134015D07B681B68042213402E
:1044D00006D0514B5A68504BE021C9000A435A603C
:1044E0004D4B5B68F022934319007B689A684A4BF6
:1044F0000A435A607B681B68012213404CD07B68DA
:104500005B68012B07D1444B1A6880239B02134040
:1045100020D101237AE07B685B68022B07D13E4BF8
:104520001A6880239B04134014D101236EE07B683A
:104530005B68032B07D1384B5A6B80235B02134017
:1045400008D1012362E0344B1B680222134001D1E1
:1045500001235BE0304B5B680322934319007B68C7
:104560005A682D4B0A435A60FCF7A2FC0300FB601B
:1045700009E0FCF79DFC0200FB68D31A274A93422E
:1045800001D9032342E0244B5B680C221A407B686C
:104590005B689B009A42ECD11E4B1B6801221340C2
:1045A0003A689A4211D21B4B1B68012293431900AF
:1045B000184B3A680A431A60164B1B6801221340D5
:1045C0003A689A4201D0012320E07B681B680422EC
:1045D000134009D0104B5B68114A134019007B68E7
:1045E000DA680D4B0A435A6000F020F801000A4BCC
:1045F0005B681B090F2213400A4AD35C0A00DA40A9
:10460000094B1A600320FCF70DFC00231800BD467F
:1046100004B080BD0020024000100240881300005A
:10462000FFF8FFFF3C9000080000002090B58FB01D
:1046300000AF1423FB18384A13CA13C312681A6058
:104640003B1D364A13CA13C312681A600023FB626B
:104650000023BB6200237B6300237B6200233B6358
:104660002F4B5B68FB62FB6A0C2213400C2B47D07C
:1046700049D8042B02D0082B03D044E0294B3B63DC
:1046800044E0FB6A9B0C0F2213401422BA18D35C3F
:104690007B62234BDB6A0F2213403A1DD35CBB6263
:1046A000FA6AC0235B021A4080235B029A4209D156
:1046B000B96A1C48FBF728FD03001A007B6A5343C4
:1046C0007B631AE0FA6AC0235B021A40C0235B02D4
:1046D0009A4209D1B96A1448FBF716FD03001A0083
:1046E0007B6A53437B6308E0B96A0E48FBF70CFD15
:1046F00003001A007B6A53437B637B6B3B6305E0DB
:10470000094B3B6302E0074B3B63C0463B6B180021
:10471000BD460FB090BDC046DC8F0008EC8F00088E
:104720000010024000127A00006CDC0280B586B0F6
:1047300000AF786000233B610023FB607B681A6850
:1047400080235B02134000D18EE017203B1800222B
:104750001A706E4BDA6980235B05134010D16B4BE6
:10476000DA696A4B802149050A43DA61674BDA69E5
:1047700080235B051340BB60BB683B1801221A70A5
:10478000634B1A6880235B0013401AD1604B1A6890
:104790005F4B802149000A431A60FCF789FB030044
:1047A0003B6108E0FCF784FB02003B69D31A642BF1
:1047B00001D90323A6E0564B1A6880235B001340FF
:1047C000F0D0524B1A6AC0239B001340FB60FB6879
:1047D000002B34D07B685A68C0239B001340FA68D2
:1047E0009A422CD0494B1B6A4A4A1340FB60474B04
:1047F0001A6A464B802149020A431A62434B1A6ADD
:10480000424B45490A401A62404BFA681A62FB68FB
:104810000122134013D0FCF74BFB03003B6109E07E
:10482000FCF746FB02003B69D31A3C4A934201D98C
:10483000032367E0354B1B6A02221340F0D0334B51
:104840001B6A344A134019007B685A682F4B0A438D
:104850001A621723FB181B78012B05D12B4BDA6941
:104860002A4B2F490A40DA617B681B6801221340FA
:1048700009D0264B1B6B0322934319007B689A686F
:10488000224B0A431A637B681B680222134009D03B
:104890001E4B1B6B234A134019007B68DA681B4BC5
:1048A0000A431A637B681B682022134009D0174B08
:1048B0001B6B1022934319007B681A69134B0A4340
:1048C0001A637B681A6880239B02134009D00F4B40
:1048D0001B6B8022934319007B689A690B4B0A4338
:1048E0001A637B681A688023DB00134009D0074BEA
:1048F0001B6B4022934319007B685A69034B0A43A0
:104900001A6300231800BD4606B080BD00100240A7
:1049100000700040FFFCFFFFFFFFFEFF8813000058
:10492000FFFFFFEFFFFFFCFF80B584B000AF7860B2
:104930007B68442200219952054BFB60FB6899B2C9
:104940007B684022995200231800BD4604B080BD08
:1049500080BF000080B584B000AF7860094BFB6079
:104960007B6840229B5A9BB2FA6892B2D24392B2C1
:10497000134099B27B684022995200231800BD462B
:1049800004B080BD80BF000084B090B5C64600B5BD
:1049900082B000AF786004201024A4460824A0460A
:1049A000B844C44460440160426083607B68402234
:1049B000012199527B684022002199527B68442250
:1049C000002199527B68502200219952002318003F
:1049D000BD4602B080BCB84690BC08BC04B01847C5
:1049E00080B59CB000AF786039606F23FB1800225F
:1049F0001A707A683B681B789B00D3181B889AB2A0
:104A00006C23FB18CF490A401A803B68DB78032BE4
:104A100017D028DC022B0ED025DC002B02D0012B76
:104A200018D020E06C22BB18BA18128880218900A7
:104A30000A431A801CE06C22BB18BA1812881A802C
:104A400016E06C22BB18BA181288C021C9000A43AC
:104A50001A800DE06C22BB18BA1812888021C90098
:104A60000A431A8004E06F23FB1801221A70C04623
:104A70007A683B681B789B00D3186C22BA1812889E
:104A8000B1490A4392B21A807A683B681B789B004E
:104A9000D3181B889BB21BB2AC4A13401AB23B68B6
:104AA0001B781BB213431AB266217B181A807A68EE
:104AB0003B681B789B00D3187A181288A2490A43D6
:104AC00092B21A803B681B7B002B00D050E13B6800
:104AD0005B78002B00D17AE07B68BB617B68502259
:104AE0009B5A9BB21A00BB699B18BB613B681B7841
:104AF000DA00BB69D3188022D200944663447B61FC
:104B00003B68DB885B089BB2DB189AB27B691A8032
:104B10007A683B681B789B00D21812217B18128898
:104B20001A807B181B884022134016D07A683B6895
:104B30001B789B00D3181B889AB210203B1883491E
:104B40000A401A807A683B681B789B00D3183A1891
:104B500012887F490A4392B21A803B68DB78012BA6
:104B60001DD07A683B681B789B00D3181B889AB2CB
:104B70000C203B1877490A401A803B183A181288D3
:104B800020214A401A807A683B681B789B00D31822
:104B90003A1812886C490A4392B21A807AE27A680B
:104BA0003B681B789B00D3181B889AB20E203B18D9
:104BB00068490A401A807A683B681B789B00D318C2
:104BC0003A18128860490A4392B21A8062E27B68FE
:104BD0003B637B6850229B5A9BB21A003B6B9B182D
:104BE0003B633B681B78DA003B6BD3185A4A944608
:104BF0006344FB623B68DB885B089BB2DB189AB2BC
:104C0000FB6A1A807B68BB627B6850229B5A9BB20E
:104C10001A00BB6A9B18BB623B681B78DA00BB6A50
:104C2000D3184E4A944663447B623B681B69002B51
:104C300010D17B6A1B889BB2494A13409AB27B6AA7
:104C40001A807B6A1B889BB2464A13439AB27B6ADE
:104C50001A802BE03B681B693E2B12D83B681B690E
:104C60005B08BB663B681B690122134002D0BB6E28
:104C70000133BB66BB6E9BB29B029AB27B6A1A8001
:104C800014E03B681B695B09BB663B681B691F221C
:104C9000134002D1BB6E013BBB66BB6E9BB29B0255
:104CA0009BB2304A13439AB27B6A1A807A683B6897
:104CB0001B789B00D21822217B1812881A807B183F
:104CC0001A888023DB01134016D07A683B681B7872
:104CD0009B00D3181B889AB220203B181B490A401E
:104CE0001A807A683B681B789B00D3183A181288A0
:104CF0001D490A4392B21A807A683B681B789B0070
:104D0000D3181B889AB21E203B1818490A401A80F3
:104D10003B183A181288802149014A401A803B18F2
:104D20003A181288802189014A401A807A683B68C3
:104D30001B789B00D3183A18128803490A4392B291
:104D40001A80A7E18F89FFFF8080FFFF8F8FFFFF11
:104D5000C080FFFFBF8FFFFF0404000006040000B7
:104D6000FF83FFFF0080FFFF80C0FFFF8FBFFFFFBB
:104D70003B68DB78022B17D17A683B681B789B0075
:104D8000D3181B889AB262203B18C6490A401A8081
:104D90007A683B681B789B00D3183A181288C2497E
:104DA0000A4392B21A8016E07A683B681B789B002F
:104DB000D3181B889AB264203B18BC490A401A8059
:104DC0007A683B681B789B00D3183A181288B84958
:104DD0000A4392B21A807B68FB657B6850229B5A1B
:104DE0009BB21A00FB6D9B18FB653B681B78DA00D1
:104DF000FB6DD3188022D20094466344BB653B68A8
:104E00001B895B089BB2DB189AB2BB6D1A807B686A
:104E10007B657B6850229B5A9BB21A007B6D9B1866
:104E20007B653B681B78DA007B6DD318A14A9446FA
:104E300063443B653B685B895B089BB2DB189AB2B5
:104E40003B6D1A803B685B78002B00D087E07A6866
:104E50003B681B789B00D21840217B1812881A806F
:104E60007B181A888023DB01134016D07A683B68D0
:104E70001B789B00D3181B889AB23E203B188949A7
:104E80000A401A807A683B681B789B00D3183A184E
:104E9000128889490A4392B21A807A683B681B7863
:104EA0009B00D2183C217B1812881A807B181B8823
:104EB0004022134016D07A683B681B789B00D318B9
:104EC0001B889AB23A203B1876490A401A807A68C1
:104ED0003B681B789B00D3183A18128877490A431D
:104EE00092B21A807A683B681B789B00D3181B88A3
:104EF0009AB238203B1872490A401A803B183A1877
:104F00001288802149014A401A803B183A181288B9
:104F1000802189014A401A807A683B681B789B008F
:104F2000D3183A18128862490A4392B21A807A68F2
:104F30003B681B789B00D3181B889AB236203B181D
:104F400060490A401A807A683B681B789B00D31836
:104F50003A18128856490A4392B21A809AE07A683F
:104F60003B681B789B00D2184E217B1812881A8050
:104F70007B181A888023DB01134016D07A683B68BF
:104F80001B789B00D3181B889AB24C203B184549CC
:104F90000A401A807A683B681B789B00D3183A183D
:104FA000128845490A4392B21A807A683B681B7896
:104FB0009B00D2184A217B1812881A807B181B8804
:104FC0004022134016D07A683B681B789B00D318A8
:104FD0001B889AB248203B1832490A401A807A68E6
:104FE0003B681B789B00D3183A18128833490A4350
:104FF00092B21A803B68DB78012B1DD07A683B683F
:105000001B789B00D3181B889AB244203B182D496B
:105010000A401A803B183A18128820214A401A8008
:105020007A683B681B789B00D3183A18128820498D
:105030000A4392B21A8016E07A683B681B789B009C
:10504000D3181B889AB246203B181E490A401A8082
:105050007A683B681B789B00D3183A181288144969
:105060000A4392B21A807A683B681B789B00D31877
:105070001B889AB242203B1811490A401A807A686C
:105080003B681B789B00D3183A18128808490A43DA
:1050900092B21A806F23FB181B781800BD461CB013
:1050A00080BDC0468F8FFFFF8081FFFF8F8EFFFF87
:1050B0008080FFFF0404000080C0FFFFC080FFFF6E
:1050C0008FBFFFFFBF8FFFFF80B58CB000AF786050
:1050D00039603B681B7B002B00D07EE03B685B782F
:1050E000002B3CD07A683B681B789B00D2180C21BF
:1050F0007B1812881A807B181B884022134016D018
:105100007A683B681B789B00D3181B889AB20A20E8
:105110003B18C7490A401A807A683B681B789B0095
:10512000D3183A181288C3490A4392B21A807A688F
:105130003B681B789B00D3181B889AB208203B1849
:10514000BD490A401A807A683B681B789B00D318D7
:105150003A181288B9490A4392B21A8063E17A6810
:105160003B681B789B00D21812217B1812881A808A
:105170007B181A888023DB01134016D07A683B68BD
:105180001B789B00D3181B889AB210203B18A849A3
:105190000A401A807A683B681B789B00D3183A183B
:1051A0001288A7490A4392B21A807A683B681B7832
:1051B0009B00D3181B889AB20E203B18A1490A40C5
:1051C0001A807A683B681B789B00D3183A181288BB
:1051D0009A490A4392B21A8025E13B685B78002B1A
:1051E00000D090E07A683B681B789B00D2182021A1
:1051F0007B1812881A807B181A888023DB011340E1
:1052000016D07A683B681B789B00D3181B889AB22B
:105210001E203B1886490A401A807A683B681B7832
:105220009B00D3183A18128885490A4392B21A8013
:105230007A683B681B789B00D2181C217B18128867
:105240001A807B181B884022134016D07A683B686E
:105250001B789B00D3181B889AB21A203B187449FC
:105260000A401A807A683B681B789B00D3183A186A
:10527000128870490A4392B21A807A683B681B7898
:105280009B00D3181B889AB218203B1868490A4023
:105290001A807A683B681B789B00D3183A181288EA
:1052A00064490A4392B21A807A683B681B789B0073
:1052B000D3181B889AB216203B1862490A401A80FC
:1052C0007A683B681B789B00D3183A1812885B49B0
:1052D0000A4392B21A807A683B681B789B00D31805
:1052E0001B889AB214203B1853490A401A807A68E6
:1052F0003B681B789B00D3183A1812884F490A4321
:1053000092B21A808FE07A683B681B789B00D218B3
:105310002E217B1812881A807B181A888023DB01C3
:10532000134016D07A683B681B789B00D3181B8803
:105330009AB22C203B183E490A401A807A683B6892
:105340001B789B00D3183A1812883D490A4392B241
:105350001A807A683B681B789B00D2182A217B1838
:1053600012881A807B181B884022134016D07A6856
:105370003B681B789B00D3181B889AB228203B18E7
:105380002B490A401A807A683B681B789B00D31827
:105390003A18128827490A4392B21A807A683B6801
:1053A0001B789B00D3181B889AB226203B182049F3
:1053B0000A401A807A683B681B789B00D3183A1819
:1053C00012881F490A4392B21A807A683B681B7898
:1053D0009B00D3181B889AB224203B1816490A4018
:1053E0001A807A683B681B789B00D3183A18128899
:1053F00012490A4392B21A807A683B681B789B0074
:10540000D3181B889AB222203B180E490A401A80F2
:105410007A683B681B789B00D3183A1812880749B2
:105420000A4392B21A8000231800BD460CB080BD1A
:105430008F8FFFFFC080FFFFBF8FFFFF8080FFFFC8
:1054400080C0FFFF8FBFFFFF90B5C3B000AF786093
:1054500039603B685B78012B01D000F0EFFC3B68C2
:105460009A693B681B699A4205D93B681B697A1D9A
:10547000FF32136004E03B689B697A1DFF321360C2
:105480003B681B7B002B25D13B6859693B68DA8858
:105490007B1DFF331B689BB2786801F0C9F97B68FC
:1054A0003B617B6850229B5A9BB21A003B699B1858
:1054B0003B613B681B78DA003B69D318CC4A9446C1
:1054C0006344FB607B1DFF331B689AB2FB681A8044
:1054D00000F08FFC3B68DB78022B00D03AE33B689E
:1054E0001A6A3B681B699A4200D8DFE27A683B6817
:1054F0001B789B00D3181B889AB256203B18BD49D5
:105500000A401A807A683B681B789B00D3183A18C7
:105510001288B9490A4392B21A803B681A6A7B1D05
:10552000FF331B68D21A3B681A627A683B681B78A3
:105530009B00D3181B889BB21A004023134000D154
:1055400062E17B683B633B685B78002B6AD17B68D8
:10555000BB627B6850229B5A9BB21A00BB6A9B18A5
:10556000BB623B681B78DA00BB6AD318A34A944637
:1055700063447B627B1DFF331B68002B10D17B6A69
:105580001B889BB29E4A13409AB27B6A1A807B6A40
:105590001B889BB29B4A13439AB27B6A1A805CE0D9
:1055A0007B1DFF331B683E2B1CD87B1DFF331B6804
:1055B0005B087A1CFF3213607B1DFF331B680122DE
:1055C000134006D07B1CFF331B6801337A1CFF326B
:1055D00013607B1CFF331B689BB29B029AB27B6AF1
:1055E0001A803AE07B1DFF331B685B097A1CFF328F
:1055F00013607B1DFF331B681F22134006D17B1CE9
:10560000FF331B68013B7A1CFF3213607B1CFF33A6
:105610001B689BB29B029BB27A4A13439AB27B6A85
:105620001A801AE03B685B78012B16D17B68502208
:105630009B5A9BB21A003B6B9B183B633B681B78E1
:10564000DA003B6BD3186D4A94466344FB627B1DC2
:10565000FF331B689AB2FB6A1A8076203B183A68BF
:1056600052891A803B6859697B1DFF331B689CB2C5
:105670003B181A887868230001F0DAF83B685A6909
:105680007B1DFF331B68D2183B685A613B681A6A5E
:105690003B681B699A4208D93B681A6A7B1DFF3335
:1056A0001B68D21A3B681A6207E03B681B6A7A1DC6
:1056B000FF3213603B6800221A623B685B78002B64
:1056C00066D17B68BB617B6850229B5A9BB21A00F3
:1056D000BB699B18BB613B681B78DA00BB69D318B8
:1056E000434A944663447B617B1DFF331B68002B58
:1056F00010D17B691B889BB2414A13409AB27B69E7
:105700001A807B691B889BB23E4A13439AB27B691D
:105710001A805AE07B1DFF331B683E2B1AD87B1D75
:10572000FF331B685B08FC217A1813607B1DFF3375
:105730001B680122134004D07B181B6801337A18C0
:105740001360FC23FB181B689BB29B029AB27B6917
:105750001A803AE07B1DFF331B685B09FC217A1835
:1057600013607B1DFF331B681F22134004D17B187D
:105770001B68013B7A181360FC23FB181B689BB263
:105780009B029BB21F4A13439AB27B691A801CE0AA
:105790003B685B78012B18D17B683B627B685022A9
:1057A0009B5A9BB21A003B6A9B183B623B681B7872
:1057B000DA003B6AD3180E4A94466344FB617B1DB2
:1057C000FF331B689AB2FB691A8076203B183A684F
:1057D00012891A803B6859697B1DFF331B689CB294
:1057E0003B181A887868230001F022F801E3C046CC
:1057F000020400008F8FFFFF8081FFFF060400007E
:10580000FF83FFFF0080FFFF3B685B78002B66D1C2
:105810007B68BB647B6850229B5A9BB21A00BB6CAE
:105820009B18BB643B681B78DA00BB6CD318C34A77
:10583000944663447B647B1DFF331B68002B10D1AF
:105840007B6C1B889BB2BE4A13409AB27B6C1A8059
:105850007B6C1B889BB2BB4A13439AB27B6C1A8049
:105860005AE07B1DFF331B683E2B1AD87B1DFF338C
:105870001B685B08F8217A1813607B1DFF331B68D7
:105880000122134004D07B181B6801337A1813607F
:10589000F823FB181B689BB29B029AB27B6C1A80A0
:1058A0003AE07B1DFF331B685B09F8217A1813600F
:1058B0007B1DFF331B681F22134004D17B181B681C
:1058C000013B7A181360F823FB181B689BB29B02FC
:1058D0009BB29C4A13439AB27B6C1A801CE03B68D3
:1058E0005B78012B18D17B683B657B6850229B5A03
:1058F0009BB21A003B6D9B183B653B681B78DA0036
:105900003B6DD3188D4A94466344FB647B1DFF3383
:105910001B689AB2FB6C1A8076203B183A68128991
:105920001A803B6859697B1DFF331B689CB23B188A
:105930001A887868230000F07BFF3B685A697B1D5A
:10594000FF331B68D2183B685A613B681A6A3B6890
:105950001B699A4208D93B681A6A7B1DFF331B6892
:10596000D21A3B681A6207E03B681B6A7A1DFF3255
:1059700013603B6800221A627B683B643B685B787B
:10598000002B66D17B68BB637B6850229B5A9BB21D
:105990001A00BB6B9B18BB633B681B78DA00BB6BC0
:1059A000D318694A944663447B637B1DFF331B68AD
:1059B000002B10D17B6B1B889BB2614A13409AB2BB
:1059C0007B6B1A807B6B1B889BB25E4A13439AB237
:1059D0007B6B1A8058E07B1DFF331B683E2B1AD867
:1059E0007B1DFF331B685B08F4217A1813607B1D55
:1059F000FF331B680122134004D07B181B6801335E
:105A00007A181360F423FB181B689BB29B029AB2AE
:105A10007B6B1A8038E07B1DFF331B685B09F42128
:105A20007A1813607B1DFF331B681F22134004D1BB
:105A30007B181B68013B7A181360F423FB181B6862
:105A40009BB29B029BB23F4A13439AB27B6B1A8074
:105A50001AE03B685B78012B16D17B6850229B5A79
:105A60009BB21A003B6C9B183B643B681B78DA00C6
:105A70003B6CD318344A94466344FB637B1DFF336D
:105A80001B689AB2FB6B1A8076203B183A685289E1
:105A90001A803B6859697B1DFF331B689CB23B1819
:105AA0001A887868230000F0C3FEA2E13B681B6AF5
:105AB0007A1DFF3213607A683B681B789B00D3180D
:105AC0001B889AB262203B1820490A401A807A68E3
:105AD0003B681B789B00D3183A1812881C490A436C
